:1000000062C100007BC1000079C1000077C100001F
:1000100075C1000073C1000071C100006FC1000014
:100020006DC100006BC100001BC3000054C3000081
:1000300065C1000063C1000061C100005FC1000034
:100040005DC100005BC1000059C1000057C1000044
:1000500055C1000053C1000051C100004FC1000054
:100060004DC100004BC1000049C1000047C1000064
:1000700045C1000043C1000041C100003FC1000074
:100080003DC100003BC1000039C1000037C1000084
:1000900035C1000033C1000031C100002FC1000094
:1000A0002DC100002BC1000029C10000222C206DB1
:1000B000757374206265203F206F72203D0D0A0029
:1000C000556E6B6E6F776E20636F6D6D616E642021
:1000D0002200222C206D7573742062652030206F01
:1000E0007220310D0A00556E6B6E6F776E2076614F
:1000F0006C75652022000D0A00222C206D7573742A
:10010000206265203020746F20370D0A00556E6B19
:100110006E6F776E2070696E202200222C206D7524
:1001200073742062652041202D20460D0A00556E13
:100130006B6E6F776E20706F7274202200756E7216
:1001400065636F676E697A656420666F726D61744E
:100150002C2033206368617273206D696E20726594
:100160007127640D0A00556E7265636F676E69735F
:10017000656420636F6D6D616E642C2074727920EC
:10018000276F70656E272E0D0A000D0A003E2000B5
:100190000D0A5465656E7379205553422044657588
:1001A00072205379737465656D2C2053696D706C82
:1001B0006520436F6E74726F6C205368656C6C0DB4
:1001C0000A0D0A4578616D706C6520436F6D6D6135
:1001D0006E64730D0A20206F70656E2020204F70B2
:1001E000656E732074686520646F6F7220666F722D
:1001F0002035207365636F6E64730D0A0000010083
:100200000031021200020000430243000300008696
:100210000204010309048A021402030904A002165D
:1002200003030904B8020C0001C1120180360181E8
:10023000361201000202000010C0167A040001010B
:1002400002030109024300020100C0320904000058
:10025000010202010005240010010524010101042E
:100260002402060524060001070582031000400948
:10027000040100020A000000070503024000000715
:1002800005840240000004030904140359006F00B0
:100290007500720020004E0061006D0065000000D6
:1002A0001603550053004200200053006500720001
:1002B000690061006C0000000C0331003200330063
:1002C00034003500000011241FBECFEFDAE0DEBF9E
:1002D000CDBF11E0A0E0B1E0ECECF9E002C0059088
:1002E0000D92A631B107D9F711E0A6E1B1E001C046
:1002F0001D92AA31B107E1F7BFD066C381CECF937B
:10030000DF93EC01FE0121968491882311F063D1E3
:10031000F9CFDF91CF910895CF93DF93EC01633054
:1003200018F48DE391E076C08881982F915496302F
:1003300058F09052963040F08EE291E0E0DF8881F4
:100340004AD18BE191E066C029812053283020F406
:100350008A818F3319F508C08DE091E0D0DF888164
:100360003AD189EF90E056C0E3E09E9FF00111245E
:1003700081E090E002C0880F991F2A95E2F7382F9C
:10038000309521A1232321A320A1822311F480E30E
:1003900001C081E320D186EF90E03CC0633099F149
:1003A0008D3389F58B81803391F4E3E09E9FF001DA
:1003B000112481E090E002C0880F991F2A95E2F78E
:1003C00021A1282B21A3809522A1282312C08133AB
:1003D00091F4E3E09E9FF001112481E090E002C0DF
:1003E000880F991F2A95E2F721A1282B21A322A18A
:1003F000282B22A310C086EE90E081DF8B81EBD00A
:1004000082ED90E007C080EC90E079DF8881E3D056
:100410008CEA90E074DFDF91CF9108950F931F93E2
:10042000CF93DF93EC01062F10E01CC09CD09C0101
:100430008FEF2F3F380781F02D303105B9F02A308A
:100440003105A1F0C90180978F35910558F42993A2
:10045000822FC1D01F5F06C083D0882331F0FDD02A
:1004600080FF03C0101710F301C01FEF812FDF9131
:10047000CF911F910F910895CF92DF92EF92FF924B
:100480001F93DF93CF93CDB7DEB7A0970FB6F89445
:10049000DEBF0FBECDBF80E8809361001092610087
:1004A000569A5E9A44D05CD08823E9F380E197E2C3
:1004B00020E931E0F9013197F1F70197D9F77E0191
:1004C0000894E11CF11C80E9C82E81E0D82EC5D02B
:1004D00080FFFDCF6DD080E991E011DF8DE891E0E4
:1004E0000EDFC70160E29ADF182F8F3F81F38AE8A1
:1004F00091E005DF1430C1F4C70160E071E044E031
:1005000050E054D2009781F485E091E064E004DF8C
:1005100080E593ECF6013197F1F70197D9F78AE07E
:1005200091E064E0F9DEDACF86E691E0D6CF81E0B3
:100530008093D70080EA8093D80082E189BD09B416
:1005400000FEFDCF80E98093D8001092E000109269
:100550001601109217018CE08093E20078940895C0
:100560008091160108952FB7F89480911601882381
:1005700069F083E08093E9009BE68091E80085FDC7
:1005800009C082FF03C09093E800F7CF2FBF2FEF81
:100590003FEF0CC09091F1008091E80085FD03C011
:1005A0008BE68093E8002FBF292F30E0C901089522
:1005B00080911601882371F09FB7F89483E08093AF
:1005C000E9002BE602C02093E8008091E80085FD59
:1005D000FACF9FBF0895482F809116018823D9F143
:1005E0002FB7F89484E08093E90080911901882363
:1005F00041F08091E80085FD02C02FBF12C010922B
:1006000019019091E400975E34E08091E80085FD47
:1006100013C02FBF8091E400891729F481E08093F3
:1006200019018FEF0895809116018823A1F02FB74B
:10063000F8943093E900E9CF4093F1008091E8000D
:1006400085FD03C08AE38093E80085E0809318016C
:100650002FBF80E008958FEF0895809117010895CE
:100660001F920F920FB60F9211248F939F93809138
:10067000E1001092E100982F83FF11C01092E90071
:1006800081E08093EB001092EC0082E18093ED001A
:1006900088E08093F000109216011092170192FFEB
:1006A00013C080911601882379F080911801882366
:1006B00059F0815080931801882331F484E08093AD
:1006C000E9008AE38093E8009F918F910F900FBE1D
:1006D0000F901F9018951F920F920FB60F92112432
:1006E0000F931F932F933F934F935F936F937F933A
:1006F0008F939F93AF93BF93EF93FF931092E90073
:100700008091E80083FF3CC14091F1003091F100FD
:100710008091F100682F70E02091F100922F80E02D
:10072000682B792B8091F100A82FB0E02091F10087
:10073000922F80E0A82BB92B1091F1000091F100CD
:1007400082EF8093E800363009F05AC024E032E0AE
:10075000A90145505040F90137978591949186172A
:10076000970701F5FA01859194918A179B07D1F4B7
:100770009A012E5F3F4FF901659174912E5F3F4FB3
:10078000F9014491212F30E0902F80E0282B392B64
:100790002F3F310519F010F02FEF30E0241758F4F7
:1007A000422F09C0295F3F4F495F5F4FF2E02E3271
:1007B0003F0789F6E5C05EEF8091E800282F30E022
:1007C000C90185709070892BB9F322FDDCC0342FEC
:1007D000413108F030E1232FCB0106C0FC01019626
:1007E000E491E093F10021502223C1F7630F711DC2
:1007F000431B5093E8004423F9F63031E9F2C3C0BB
:10080000353061F48EEF8093E8008091E80080FF3E
:10081000FCCF862F80688093E300B5C0393051F556
:10082000442309F0ADC06093160110921701109295
:1008300018018EEF8093E80087E292E021E0209398
:10084000E900FC010196E491E093EB00EE2369F0EE
:10085000AC014F5F5F4FFC0184918093EC00CA01B3
:100860000196FA0134913093ED002F5F253039F76E
:100870008EE181C0383061F4403809F081C0809148
:10088000E80080FFFCCF809116018093F10050C0FA
:10089000313289F4413A09F073C08091E80080FF59
:1008A000FCCFEFE0F1E081918093F10081E0E6314F
:1008B000F807C9F73DC03032A1F4413209F060C0F9
:1008C0008091E80082FFFCCFEFE0F1E08091F10041
:1008D000819381E0E631F807C9F78BEF8093E80058
:1008E00027C0323251F4413209F04AC060931701F7
:1008F0008091E80080FFFCCF1BC03323E9F4809196
:10090000E80080FFFCCF423811F080E00DC0A093DA
:10091000E9008091EB0090E025E0969587952A9577
:10092000E1F781701092E9008093F1001092F100DC
:100930008EEF8093E80027C0313011F0333001F59D
:100940004230F1F4672BE1F42A2F2F77822F815068
:100950008430B0F48EEF8093E8002093E9003330C8
:1009600079F089E18093EB0081E090E002C0880F8C
:10097000991F2A95E2F78093EA001092EA0003C0DB
:1009800081E28093EB00FF91EF91BF91AF919F9136
:100990008F917F916F915F914F913F912F911F9117
:1009A0000F910F900FBE0F901F901895FB01DC0167
:1009B0004150504030F08D910190801919F4002081
:0C09C000B9F7881B990B0895F894FFCF3D
:1009CC006F70656E0044373D310044373D30000098
:0609DC00E100000000082C
:00000001FF
